:0200000460009A
:100000004643464200000156000000000103030081
:1000100000000000000000000000000000000000E0
:1000200000000000000000000000000000000000D0
:1000300000000000000000000000000000000000C0
:1000400000000000010408000000000000000000A3
:100050000000800000000000000000000000000020
:100060000000000000000000000000000000000090
:100070000000000000000000000000000000000080
:10008000EB04180A063204260000000000000000FD
:10009000050404240000000000000000000000002F
:1000A0000000000000000000000000000000000050
:1000B0000604000000000000000000000000000036
:1000C0000000000000000000000000000000000030
:1000D00020041808000000000000000000000000DC
:1000E0000000000000000000000000000000000010
:1000F0000000000000000000000000000000000000
:10010000D8041808000000000000000000000000F3
:100110000204180804200000000000000000000095
:1001200000000000000000000000000000000000CF
:10013000600400000000000000000000000000005B
:1001400000000000000000000000000000000000AF
:10015000000000000000000000000000000000009F
:10016000000000000000000000000000000000008F
:10017000000000000000000000000000000000007F
:10018000000000000000000000000000000000006F
:10019000000000000000000000000000000000005F
:1001A000000000000000000000000000000000004F
:1001B000000000000000000000000000000000003F
:1001C000000100000010000001000000000000001D
:1001D000000001000000000000000000000000001E
:1001E000000000000000000000000000000000000F
:1001F00000000000000000000000000000000000FF
:10020000FFFFFFFFFFFFFFFFFFFFFFFFFFFFFFFFFE
:10021000FFFFFFFFFFFFFFFFFFFFFFFFFFFFFFFFEE
:10100000D100204325160060000000000000000011
:10101000201000600010006000600160000000000F
:1010200000000060006C010000000000FFFFFFFFF7
:10103000FFFFFFFFFFFFFFFFFFFFFFFFFFFFFFFFC0
:10104000FFFFFFFFFFFFFFFFFFFFFFFFFFFFFFFFB0
:10105000FFFFFFFFFFFFFFFFFFFFFFFFFFFFFFFFA0
:10106000FFFFFFFFFFFFFFFFFFFFFFFFFFFFFFFF90
:10140000884207D0904205D251F8043B40F8043B93
:101410008242F9D8704700BF884204D2002340F8C6
:10142000043B8142FBD870472DE9884800F0D0F991
:101430000824614B614AC3F8544161496148FFF790
:10144000DFFF614A61496248FFF7DAFF614962489C
:10145000FFF7E2FF614C4FF0E0214FF470000023F2
:101460005F4AC1F8880D44F823200133B02BFAD12C
:101470005C4B80215C4A03F8011B9342FBD14FF087
:10148000E0254D4E4FF08039DFF88CB1DFF88CA1AC
:101490004FF0FF31C5F8084D0027C6F80491C6F893
:1014A00000B1C6F8F490C6F8F0A0D5F8243DDFF8F6
:1014B000708143F4E0234D4AC5F8243DD8F81C3030
:1014C00023F07F0343F04003C8F81C30D8F82430E1
:1014D00023F07F0343F04003C8F824309166D166BF
:1014E0001167516700F07CF9414B4249A363424BBD
:1014F000E36363236B610323AF612B613F4BC5F84B
:10150000203DD5F8FC3D43F08073C5F8FC3D3C4BD5
:101510001A6842F001021A605B680B6000F09EFBE3
:10152000C6F804913748C6F800B1C6F8F490C6F87A
:10153000F0A000F035FDD8F86C10334B334A41F47D
:101540004051C8F86C101F60C3F80871C3F81871D7
:10155000C3F82871C3F83871936BDB0708D442F6DF
:1015600015632B4951651365936B43F00103936336
:10157000264A284C936843F00113936000F0ACF9BD
:1015800000F0D0FC00F01CFD00F096FB00F022F90A
:101590002368132BFCD900F027FC2368B3F5967F52
:1015A000FBD300F01BF900F017F900F0F5FC00F098
:1015B000FBFC30BFFDE700BF00800D40481F01006D
:1015C000DC21006000000000C01E002028410160F6
:1015D00000000020C02F0020C01E0020001C0020A2
:1015E000817F000000E400E0A0E400E000C00A40C9
:1015F00041940000482F0020459400000000202066
:10160000001000E00046C3230040084000400D40A9
:101610000000C0564C2F00201B1018200C0D111379
:1016200000C00F40074B4FF42A01074A07485A648D
:101630001864074A99639546BFF34F8FBFF36F8FC6
:10164000FFF7F2FE00C00A40BFAAAAAA07002000C6
:101650000080062043690A4A03EB011010B4037AA4
:10166000084C02EB0313D3E901321460C2681A601C
:1016700003690BB142691A605DF8044B704700BF03
:10168000840E002061F801004369027E03EB021220
:1016900092F808C08C451CD01A7AFF2A19D09142C2
:1016A00010B5044616D01A7EFF2A06D00121D3E9D0
:1016B000002312681A4201D1217610BD064B052283
:1016C000204603EB0C135B681A60FFF7C3FF21761B
:1016D000F3E770470021EAE7840E002043690A4AD5
:1016E00003EB011010B490F82830084C02EB031300
:1016F000D3E901321460C26A1A60036B0BB1426B0A
:101700001A605DF8044B7047840E002061F80100F8
:101710004369427E03EB021292F828C08C451ED02A
:1017200093F82820FF2A1AD0914210B5044617D00A
:1017300093F83820FF2A06D00121D3E9002312684C
:101740001A4201D1617610BD064B0522204603EBFB
:101750000C135B681A60FFF7C1FF6176F3E770470F
:101760000021EAE7840E0020164942698B6B23F4BE
:101770007C0343F4802370B58B630446124DD2E999
:1017800000130A681A4303690A60022200211A61E1
:101790000E4A19619A6401225A629D624FF43035F3
:1017A000DD624FF001159E6C1E6519629D651A6120
:1017B000017EFFF74FFF617E2046BDE87040FFF7D6
:1017C0008DBF00BF00C00F40B80B05053B3728197F
:1017D000704700BF704700BF704700BF00BF704731
:1017E00010B44FF0E023002110242B48C3F8941DBF
:1017F000C3F89C4D1124C3F8A00D2848C3F89C4D94
:101800001224C3F8A00D2648C3F89C4D254AC3F8FE
:10181000A00D254C42F015022448C3F89C4DC3F896
:10182000A00D234C2348C3F89C4DC3F8A00D224CB7
:10183000C3F89C2D2148224AC3F8A04DC3F89C0D43
:10184000C3F8A02D02F5A0221E4C0C321E48C3F88E
:101850009C4DC3F8A02D1D4AC3F89C0D1C4CC3F829
:10186000A02D01221B48C3F89C4DC3F8A00DC3F85E
:10187000942DBFF34F8FBFF36F8FC3F8501FBFF38B
:101880004F8FBFF36F8FD3F8142D5DF8044B42F4E4
:101890004032C3F8142D70473F00001025000803A4
:1018A00009001000C02F00201300200021000207B3
:1018B0001400002025000813090000101600202045
:1018C00027000B1317000040180000602F000B07C3
:1018D000190000702F000B13F0B5B84B1822B84E4A
:1018E0000120B84F83B0C3F85C62B749C3F8607297
:1018F000B64DC3F86462A6F53046B54CC3F86862CD
:10190000C3F86C52C3F87052C3F87452C3F87852DB
:1019100048F20C75DA661A675A679A67DA67C3F88D
:101920008020C3F88420C3F88820C1F82C03A94A7A
:10193000C1F83003C1F83403C1F83803C1F83C03DF
:10194000C1F85003A169A44B0A40A448A449134319
:10195000A44AA361D4F8843043F00C03C4F8843063
:101960004FF0FF34036843F00203036003682B4029
:101970004FF400551A439C4B026044608A689B4CAC
:1019800013409B4A43F000538360C36823F07803FD
:10199000C360036A134023430362036A1340954AFA
:1019A0002343954C43628262C2620022D1F8B83070
:1019B00023F03F0343F00103C0F8B830D1F8BC3046
:1019C0008E4923F03F0343F00103C0F8BC3040F2DE
:1019D0000563026105660467C0F8803045664467A8
:1019E0000224C0F88430036823F00203036081619D
:1019F000834B8449C46143F8042B8B42FBD1774A63
:101A0000136843F001031360136813F00103FBD163
:101A10007A48022140F2F564906140F29940D16128
:101A200040F26641C2F8004242F20144C2F810128C
:101A30007549C2F82002C2F8301240F235417348AD
:101A4000C2F83442C2F84012714CC2F8500242F25D
:101A500001207049C2F854120121C2F86042C2F854
:101A600064025E48C2F8A030C2F8A430C2F8B010D8
:101A70004369DA07FCD5012300244FF4803257492B
:101A80004361C0F8A040C0F8A420C0F8B0304B6952
:101A9000DB07FCD5012300244FF400304F4A4B6193
:101AA000C1F8A040C1F8A400C1F8B0305369DF0705
:101AB000FCD501230024584848495361C2F8A0408E
:101AC000C2F8A400C2F8B0304B69DE07FCD5D1F8EB
:101AD000003145F60D5221209BB24861934265D1F9
:101AE00000244FF4802201233C48C1F8A040C1F8F3
:101AF000A420C1F8B0304369DD07FCD501234FF4C1
:101B000000040021354A4361C0F8A040C0F8A41089
:101B1000C0F8B0305369DC07FCD501234FF4000452
:101B20004FF480302D495361C2F8A040C2F8A400A0
:101B3000C2F8B0304B69D807FCD501234FF400043C
:101B40004FF40030254A4B61C1F8A040C1F8A40011
:101B5000C1F8B0305369D907FCD501234FF4000414
:101B60002D481E495361C2F8A040C2F8A400C2F833
:101B7000B0304B69DA07FCD5D1F8003145F60D528B
:101B800021209BB24861934250D008254FF40004B5
:101B900022490020224B234A009015705A1A012333
:101BA0002148224400F0F4F903B0F0BD1E4B00229E
:101BB000C3E90022C3E9022203B0F0BD00801F4048
:101BC000F9B00100F910010000841F40F970010014
:101BD00000C00F40FFFCFF1F000300A000402A4090
:101BE00000802A401200FFFFFF37F700400000800E
:101BF00000FFF07CFF000F8363000200F05AF05AF0
:101C000000422A4000432A409F041830EB06180A7D
:101C10003806180A0632012604000300000000708E
:101C200000000070842F0020302E00204FF40004AC
:101C30004FF4802201230848C1F8A040C1F8A42035
:101C4000C1F8B0304369DB07FCD5012310254FF004
:101C5000807443619CE700BF00402A40F0B4154AFD
:101C600040274FF480314FF480564FF400554FF425
:101C7000404443F24200136913F0020F0ED113F4F3
:101C8000005F0FD013F4805F0ED0002BF3DA13F453
:101C9000803F0BD15B060BD5F0BC7047946151615E
:101CA0009061E8E75561E6E75661E4E79161E2E7B4
:101CB0005761E0E700800D403F4A03203F49F3EEC3
:101CC000095AD2F880304FF0000C9FED3D6A23F0A6
:101CD00001039FED3C5A30B4C2F88030C2F8900046
:101CE000D1F8E010384DCBB2384C39482B6007EEB4
:101CF000903A0B0DC1F30B21F8EEE77A06EE903A1D
:101D000007EE101A334BB8EEC77A2160F8EEE66A98
:101D1000314937EEC66A37EEC55A76EEC76A77EEB6
:101D2000E57A26EE266AC3ED006A25EE265AD2F839
:101D3000803067EEA64AC0ED007AC6EE275A2748E3
:101D400085EE276AC4EEA76A75EE875AFCEEE55A5F
:101D500036EE076A15EE904ABCEEC66A43EA0453B3
:101D600076EE877AC2F8803016EE103AD2F89041BB
:101D7000FCEEE77A01EA0341214317EE903AC2F8FC
:101D80009011C3F30B03D2F890110B431449C2F81E
:101D90009031D2F8803043F00203C2F88030114B0A
:101DA00080F840C0C1F840314FF0E023012230BC40
:101DB000C3F80821704700BF00810D4000441F4058
:101DC0000000AA420000B442102F00200C2F002077
:101DD000142F0020182F00200000FF0F00E400E067
:101DE000001C002061810000314B40F6617210B58B
:101DF000C3F8202140F2044400F0C6F82D4A2E49D1
:101E0000D2F880302D4843F00303C2F880302C4BC9
:101E1000C1F8604102681A4203D1D1F8A8319A078B
:101E20001BD0254A4FF00041244B5963D2F8403172
:101E300043F00203C2F84031D2F840319B07FBD493
:101E40004FF400304FF0E0211C4B4FF00042C1F83E
:101E50008C0219209A6300F0AFF8184A4FF08040C6
:101E6000154C002190630A20164B11604FF420722C
:101E7000C4F8A801184600F09BF84FF4800203460E
:101E80004FF4810040F243111860C4F858311A64CD
:101E90000D4B0E4AC4F84811C3F804224FF0E0225B
:101EA0004FF400310123C2F80C11C4F8403110BDC9
:101EB00000800D4000C00F4000002E4000900D40FB
:101EC000001C1E0000000020001C002049830000B0
:101ED00008B50E4B1B6E9B0700D4FBBE72B60C4BB5
:101EE00000200C4AC3F8400103F160430A49A3F5FE
:101EF0005F2311649D46BFF34F8F4FF400130748D3
:101F0000074ADB6902609B68984700BF00441F4096
:101F100000002E4000C00A40030020000080202066
:101F2000000012EB104BA020104AD96E41F4403152
:101F300010B4D96640F23764D96E41F44071D96665
:101F400054649064936C1B06FCD4094A40F23761D8
:101F5000A02351649364936C13F08003FBD1054A72
:101F600013705DF8044B704700C00F4000400C40F8
:101F700000800C40832F0020F8B500BFF8BC08BCDF
:101F80009E467047000000005FF800F0B98A00002C
:101F90005FF800F0259600005FF800F085E600008D
:101FA0005FF800F08D7500005FF800F0617A0000C6
:101FB0005FF800F0B5E300005FF800F07D78000006
:101FC0005FF800F0E19400004500000009130000F4
:101FD00005190000B56A0000D96D000041CC000071
:101FE00070C00F40C000000012000000130000008D
:101FF000D0841F4001000000FF000000FF0000002F
:1020000000000000000000001300000013000000AA
:10201000CC841F4001000000FF000000FF00000012
:1020200000000000000000001C000000E11800009B
:1020300070C00F40000C00001100000011000000F3
:10204000E0841F40020000002C000000120000008D
:10205000E0841F400100000010000000110000009B
:10206000DC841F40020000002D0000001200000070
:10207000DC841F40010000001E000000ED1800007D
:1020800080C00F4000000003190000001000000095
:10209000E8841F4001000000FF000000FF00000076
:1020A0000000000000000000180000001000000008
:1020B000E4841F4001000000FF000000FF0000005A
:1020C00000000000000000001F000000F9180000E0
:1020D00016035500530042002000530065007200B3
:1020E000690061006C000000180354006500650081
:1020F0006E00730079006400750069006E006F0067
:102100000403090409026200030100C032080B0045
:10211000020202010009040000010202010005247C
:102120000010010524010101042402060524060013
:10213000010705820310001009040100020A0000D3
:102140000007050302400000070584024000000963
:1021500004020002FF6AFF00070581024000010738
:10216000050102400001000009026200030100C0F5
:1021700032080B0002020201000904000001020201
:1021800001000524001001052401010104240206B8
:10219000052406000107058203100005090401005B
:1021A000020A00000007050302000200070584027E
:1021B0000002000904020002FF6AC700070581024D
:1021C0000002010705010200020100000A060002E8
:0C21D000EF0201400100000000000000D0
:1021DC0000000000000000000000000000000000F3
:1021EC0000000000000000000000000000000000E3
:1021FC000548064B1B1AD90F01EBA301491002D05D
:10220C00034B03B118477047C01E0020C01E0020AE
:10221C000000000008B5054B1BB105490548AFF39C
:10222C000080BDE80840FFF7E3BF00BF00000000DE
:10223C00B02E0020006C016000207047704700BF7A
:10224C00036D0BB101207047406D003818BF0120A1
:10225C00704700BF10B50446806D18B10DF046FBF9
:10226C000023A365236D2BB104F11800BDE81040C9
:10227C0005F0F2BE636D002BF6D110BD10B504460F
:10228C00806D00B110BD4FF480700DF027FBA06580
:10229C00B0B10022236D02703BB101464FF4807245
:1022AC00184605F029FBA06D10BD636D002BE9D01D
:1022BC0001464FF48072184603F0B6FAA06D10BDBB
:1022CC00014B1846A36510BD822F002038B5056D53
:1022DC006DB10BB1002038BD1146284604F032FB1D
:1022EC000028F7D02846BDE8384004F0CDBC446D3A
:1022FC00002CEFD0204602F045FA0028EAD0204608
:10230C00BDE8384003F0B8B88A79A2F150031B0637
:10231C0022D402F26C72F0B54B7985B0046D0133A6
:10232C000D798E784F78DBB209784CB12046019646
:10233C000095CDE90271042104F03AFC05B0F0BD22
:10234C00406D0028FAD001960095CDE90271042168
:10235C0002F0D6FF05B0F0BD0020704710B5044662
:10236C00006D80B1037813F0700F00D110BD002107
:10237C0004F0E8FA606D0028F8D000220023BDE8D4
:10238C00104002F0FFB9606D0028EFD090F83130AA
:10239C0013F0500FEAD000220023BDE8104002F0E9
:1023AC00F1B900BF036D10B50C4682B02BB30DF123
:1023BC00060201A9184603F06BFE38B3BDF80430D1
:1023CC00BDF8062053EA020120D0C2F3451C02F0EE
:1023DC001F00D20AC3F34311400084F801C0A2705D
:1023EC005A0A013903F01F0302F5EA62207001203A
:1023FC0061712371A27102B010BD406D30B10DF14D
:10240C00060201A902F064F80028D7D1002002B01E
:10241C0010BD00BF036D10B50C4682B02BB30DF18F
:10242C00060201A9184603F023FE38B3BDF80430A8
:10243C00BDF8062053EA020120D0C2F3451C02F07D
:10244C001F00D20AC3F34311400084F801C0A270EC
:10245C005A0A013903F01F0302F5EA6220700120C9
:10246C0061712371A27102B010BD406D30B10DF1DC
:10247C00060201A902F01AF80028D7D1002002B0F8
:10248C0010BD00BF0369D3B10E4810B41C68E468DA
:10249C0084420FD1186D18B15DF8044B04F02EBCBA
:1024AC00586D18B15DF8044B03F058B800205DF876
:1024BC00044B7047184623465DF8044B1847002020
:1024CC00704700BFD1050000006990B10368154A40
:1024DC001B69934225D1036D63B1187810F0080085
:1024EC0007D0D8695B69C01A48BF6FF000407047CD
:1024FC0018467047436D002BFAD093F8310010F05A
:10250C000800F6D0186919685A69401A5B6862EBC2
:10251C000303B0F1004F73F10003EAD36FF00040F6
:10252C0070471847B9060000036973B11A68084967
:10253C0052698A4207D1186D08B104F08FB8586DF2
:10254C0018B102F009B9184610474FF0FF30704728
:10255C0005050000036963B11A68074992698A424C
:10256C0008D1186D08B104F01DBB586D08B102F00C
:10257C0051BD704718461047A9050000036923B3E5
:10258C001968134A10B58C6882B0944214D1186D36
:10259C0048B101220DF1070103F08CFF90B19DF8B9
:1025AC00070002B010BD586D0028F8D001220DF1C3
:1025BC00070102F001F8F1E701220DF107011846BD
:1025CC00A047EBE74FF0FF30EBE74FF0FF307047E1
:1025DC0045050000036D13B1586900217047436D28
:1025EC0013B1D3E90001704718461946704700BF74
:1025FC00036D13B1D86900217047436D13B1D3E952
:10260C000401704718461946704700BFF0B595B0E5
:10261C0000224FF47A74244F1831054604A88DF823
:10262C000C200097CDE90124CDE9122205F080FDA4
:10263C00129B002B2DD05C20002607F09BFB019BEE
:10264C0004464660C36004A9029B183040F8083C5D
:10265C009DF80C3000F8043C144B40F8183C144B1B
:10266C0040F8103C05F0B6FC124B4FF47A72A760A0
:10267C002B606368A66501336E602E73AA602C61B3
:10268C0063600D4B04A8009305F0E6FC284615B0DA
:10269C00F0BD139B002BCED1064A2B732A602B6105
:1026AC00C5E90134EDE700BF240A0020480A0020E8
:1026BC00A40A0020F80900203C090020836C13B107
:1026CC00184603F0CBBFC06C08B102F045B84FF010
:1026DC00FF307047036D13B1184603F0BFBF406D58
:1026EC0008B102F039B84FF0FF307047036D33B1C9
:1026FC001B7813F0700F14BF012000207047406D41
:10270C0030B190F8313013F0500F14BF012000207D
:10271C00704700BF036D13B1184603F0CBBE406D7C
:10272C0008B101F049BF4FF0FF307047836C00B522
:10273C0083B063B101220DF10701184603F0BAFE14
:10274C0001280CD19DF8070003B05DF804FBC06CA8
:10275C0028B101220DF1070101F02EFFF0E74FF037
:10276C00FF30F1E7836C13B1184604F01BBAC06C50
:10277C0008B102F04FBC7047036D13B1184604F05A
:10278C0011BA406D08B102F045BC7047836C13B1AF
:10279C00184604F0B3BAC06C08B102F0DFBE704743
:1027AC00036D13B1184604F0A9BA406D08B102F0DC
:1027BC00D5BE704700B5836C83B08DF8071043B15C
:1027CC0001220DF10701184604F098FA03B05DF8E8
:1027DC0004FBC06C0028F9D001220DF1070102F0B6
:1027EC00BDFE03B05DF804FB8A79A2F150031B0611
:1027FC0022D402F26C72F0B54B7985B0046D0133C2
:10280C000D798E784F78DBB209784CB12046019661
:10281C000095CDE90271022104F0CAF905B0F0BDB2
:10282C00406D0028FAD001960095CDE90271022185
:10283C0002F066FD05B0F0BD00207047836C53B10B
:10284C00187810F008000DD0D8695B69C01A48BF21
:10285C006FF000407047C36CA3B193F8310010F0D7
:10286C00080000D17047186919685A69401A5B68EA
:10287C0062EB0303B0F1004F73F10003F2D36FF07E
:10288C00004070471846EDE7036D53B1187810F00F
:10289C0008000DD0D8695B69C01A48BF6FF00040C2
:1028AC007047436DA3B193F8310010F0080000D1CC
:1028BC007047186919685A69401A5B6862EB030320
:1028CC00B0F1004F73F10003F2D36FF0004070478A
:1028DC001846EDE700B5006983B08DF8071060B1BC
:1028EC000368104ADB68934215D1036D43B1012292
:1028FC000DF10701184604F001FA03B05DF804FB72
:10290C00406D0028F9D001220DF1070102F026FEDE
:10291C0003B05DF804FB01220DF10701984703B0E9
:10292C005DF804FBD105000038B504460C4B806DF6
:10293C00236018B10CF0DAFF0023A365236D04F1BA
:10294C0018054BB1284605F087FB064B2846A360BB
:10295C0005F082FB204638BD636D002BF2D1F4E705
:10296C00480A00203C09002038B504460E4B806D07
:10297C00236018B10CF0BAFF0023A365236D04F19A
:10298C0018056BB1284605F067FB084B2846A36079
:10299C0005F062FB20465C2107F0EEF9204638BDBD
:1029AC00636D002BEED1F0E7480A00203C090020B3
:1029BC0030B4029C11469C4634B1012C1CD0022C24
:1029CC000ED0002030BC7047056DF5B14FF0FF33D1
:1029DC00934274EB0C04F4D3284630BC03F0B2BF22
:1029EC00026D0AB3D36959184CF10003002BE8D1DE
:1029FC00104630BC03F0A6BF026D62B15369591882
:102A0C004CF10003002BDCD1F2E7406D0028D8D04C
:102A1C0030BC01F0B7BE406D0028D2D0D0E9002305
:102A2C008A184CEB0303F3E7406D0028C9D0D0E9BA
:102A3C00042330BC8A184CEB030301F0A3BE00BF87
:102A4C0070B5244B044605690360002D32D06E68C6
:102A5C00013E6E6076BB2B681F4ADB6A93422FD116
:102A6C00A86D10B10CF042FFAE652B6D23B305F1D0
:102A7C00180005F0F1FA2569E5B12B68174A5B6877
:102A8C00934224D1164BA86D2B6018B10CF02EFF7D
:102A9C000023AB652B6D05F11806A3B1304605F08C
:102AAC00DBFA104B3046AB6005F0D6FA5C212846B9
:102ABC0007F062F9204670BD6B6D002BD7D1DAE7B9
:102ACC0028469847D7E76B6D002BE7D1E9E72846F6
:102ADC009847EFE7F80900208500000099070000EF
:102AEC00480A00203C09002070B5264B04460569B5
:102AFC000360002D32D06E68013E6E6076BB2B6891
:102B0C00214ADB6A934233D1A86D10B10CF0EEFE72
:102B1C00AE652B6D43B305F1180005F09DFA2569E0
:102B2C00E5B12B68194A5B68934228D1184BA86D04
:102B3C002B6018B10CF0DAFE0023AB652B6D05F1A0
:102B4C001806C3B1304605F087FA124B3046AB601D
:102B5C0005F082FA5C21284607F00EF92046142174
:102B6C0007F00AF9204670BD6B6D002BD3D1D6E768
:102B7C0028469847D3E76B6D002BE3D1E5E7284651
:102B8C009847EBE7F8090020850000009907000042
:102B9C00480A00203C0900202DE9F0472E4D40F258
:102BAC00EE282E4C2E4FDFF8D4902E6808F048FCFF
:102BBC002378002B43D03B78DB0740D52B68D9F822
:102BCC0000209B1A0E2B3AD9264811F095FA0521B4
:102BDC00254806F06DF90421244806F069F9244CC7
:102BEC000321244806F064F9322006F02FFFD4EDBF
:102BFC00007A1D48FDEEE77A17EE901A06F08CF974
:102C0C00D4ED007A1948FDEEE77A17EE901A06F02B
:102C1C0083F9D4ED007A1748FDEEE77A17EE901A97
:102C2C0006F07AF9144801F0EFFB40F6B8334FF494
:102C3C007A7201211048BDE8F04700F095BF2B686F
:102C4C0022789B1B2AB1B3F5FA6FBDD808F0F8FBBC
:102C5C00ACE74345FAD9B7E74C2F00208C2F002066
:102C6C008B2F002084260020202F0020282F0020CE
:102C7C00C41A0020302F0020402E0020682F002086
:102C8C002DE9F04FDC4CDFF820942046DFF81CA433
:102C9C00DFF81CB42DED068BC1B001F025F994EDD5
:102CAC00158AD64BD4ED168A83ED008AE36DB0EE0F
:102CBC00680AC9F80030D24BC3ED008AD14B93EDB2
:102CCC0000AA0CF0CDF8F0EE409AB0EE680A0CF0C9
:102CDC00CBF9B0EE409AB0EE480A0CF0C1F8F0EE29
:102CEC00408AC94AB0EE480AC84BF1EE699A69EEBF
:102CFC00288A92ED008AD3ED007A28EE888AA7EE16
:102D0C00A98A0CF0B1F9C24B29EE000AD3ED006A86
:102D1C00C04B93ED006AAAEE008ABF4BD3ED005A6C
:102D2C00BE4B93ED007A78EE267ABD4B28EE877A6F
:102D3C00CAED007AA5EEA97AA6EE007A93ED006AA8
:102D4C00B84B68EE868A93ED006AB74BE6EE298A9B
:102D5C0093ED006A37EE267AB44BB4EEE77A8BED3E
:102D6C00007AE6EE008AF1EE10FA38EEA60A83ED50
:102D7C00000A05DDB4EEC70AF1EE10FA00F3408349
:102D8C00B4EEC70AF1EE10FAB4EEE77A00F1348330
:102D9C00F1EE10FA05D5B4EEE70AF1EE10FA00F3F5
:102DAC006383B4EEE70AF1EE10FA40F15A83B4EE05
:102DBC00E77AF1EE10FA77FE804A74EEE77A9C4DD2
:102DCC009C4B34EEC77A9C4E74EEC04AB7EEE76A61
:102DDC0093ED003A994BB7EEC71A27EE833A984F0A
:102DEC00984895ED005BB7EEC33A36EE056B96ED61
:102DFC00000B85ED006B93ED006B934B31EE001BDC
:102E0C00A6EE053BD3ED006AC3ED007A8F4B77EE4F
:102E1C00E67A93ED006A8E4BB7EEE45A26EE276AFB
:102E2C0093ED002A8B4B27EE022AB7EEC66AB7EE5B
:102E3C00C22A36EE036B93ED003B874BB7EEC66BA5
:102E4C00D3ED007AA3EE002B83ED007A834B93ED48
:102E5C00003A37EE670A824B24EE833A86ED001B6C
:102E6C0093ED001AB7EEC33A7E4B36EE016AD3ED02
:102E7C00006A71EE011A7C4B93ED004A7B4B74EEA9
:102E8C00660A93ED007A7A4B26EE206A27EE007ADA
:102E9C00C6EE217A77EEA67AB4EE674AF1EE10FA16
:102EAC0048BFF0EE447AF4EE676AF1EE10FA76FE63
:102EBC00A77AFDEEE77A17EE901AB7EEC77A37EEDF
:102ECC00027BB7EEC77B37EE017A27EE207AC7EE8E
:102EDC00218A97ED007B35EE075B87ED005B93ED68
:102EEC00005B644BA5EE073BD3ED007AC3ED004AC3
:102EFC00614B74EEE74A93ED007A78EEA68A27EEE2
:102F0C00247AF4EE448AB7EEC77AF1EE10FA37EE73
:102F1C00037B74FE288AF4EE668AB7EEC77BF1EE6B
:102F2C0010FA37EE017A48BFF0EE668A27EE207A67
:102F3C0087EE218A38EE268AB4EE448AF1EE10FA36
:102F4C0034FE088AB4EE668AF1EE10FA48BFB0EE91
:102F5C00668A05F0E1FFFDEEE87A484817EE901A14
:102F6C0005F0DAFFFDEEC87A454817EE901A05F029
:102F7C00D3FFFE21434805F01BFE002800F05482CD
:102F8C002121414808F0DEF9404806F06BF944F283
:102F9C0002233F4A2CA83F4905F078F93E9B002BB1
:102FAC0000F04D825C204FF0000806F0E3FE2D9BF4
:102FBC000446C0F80480C36030A92E9B183040F83A
:102FCC00083C9DF8BC3000F8043C334B40F8183CEE
:102FDC00324B40F8103C04F0FDFF6368C4F8588095
:102FEC0030A80133DFF8CC8063602D4BA3602D4BF0
:102FFC0001932C9360E000BF402E0020542F002042
:10300C00582F0020482A0020E8140020442A0020D1
:10301C00F41400204C2A0020E0140020EC140020B2
:10302C00F0140020E4140020502A00205C2A002018
:10303C00A0200020C4140020A82000207813002019
:10304C00B0200020302F0020C82E0020B814002003
:10305C00C814002080130020CC2E0020CC1400209B
:10306C00442F0020041B0020081B0020BC1400204F
:10307C0088130020D02E0020C0140020282F002000
:10308C00202F0020C02000201C120020D014002073
:10309C0088120020C4200020480A0020A40A002026
:1030AC00240A00203C0900205C2F0020542A002018
:1030BC00582A00209C1A002004F0CEFFD8F81030BB
:1030CC00002B00F0B4815A68013A5A600292002A2F
:1030DC0040D11968B748C96A814240F0DA81986DCD
:1030EC0028B103930CF002FCDDE902239A651A6DFA
:1030FC00002A00F0C48103F1180004F0ADFFD8F8E9
:10310C0010303BB31A68AC4952688A4240F0D38104
:10311C00AA4A986D1A6028B102930CF0E7FB0022C2
:10312C00029B9A651A6D002A00F0B98103F118020E
:10313C0003931046029204F08FFFDDE90223104640
:10314C00019A02939A6004F087FF029B5C21184657
:10315C0006F012FEC8F81040002C00F059812368CC
:10316C00974A1B6B934240F04E81236D002B00F06D
:10317C007E811B21934808F0E5F8934806F072F81D
:10318C00924904A806F044FA914B022108A893ED49
:10319C00000A06F051FA08A90CA806F0DFF98D49CF
:1031AC000CA806F0B1FA8C4B0446022193ED000AF0
:1031BC0010A806F041FA10A9204606F09DFA8549A0
:1031CC0006F0A2FA044699ED000A022114A806F0B2
:1031DC0033FA14A9204606F08FFA7E4906F094FAC9
:1031EC0004469AED000A022118A806F025FA18A93F
:1031FC00204606F081FA774906F086FA04469BEDE4
:10320C00000A02211CA806F017FA1CA9204606F099
:10321C0073FA704906F078FA704B0446022193ED6C
:10322C00000A20A806F008FA20A9204606F064FA45
:10323C00684906F069FA0446022124A895ED000BB2
:10324C00B7EEC00B06F0F8F924A9204606F054FAA4
:10325C00604906F059FA0446022128A896ED000BA5
:10326C00B7EEC00B06F0E8F928A9204606F044FAA0
:10327C00584906F049FA044602212CA897ED000B98
:10328C00B7EEC00B06F0D8F92CA9204606F034FA9C
:10329C00014604A806F02CFA2CA806F07DF928A803
:1032AC0006F07AF924A806F077F920A806F074F94C
:1032BC001CA806F071F918A806F06EF914A806F00F
:1032CC006BF910A806F068F90CA806F065F908A8C7
:1032DC0006F062F904A9424805F09EFF404805F04B
:1032EC00C1FFD8F81040002C52D02368314EDB6A55
:1032FC00B34240F0C180A06D18B10CF0F7FA002376
:10330C00A365236D002B00F0958004F1180004F0E8
:10331C00A3FED8F810506C68013C6C60002C34D1C2
:10332C002B68DB6AB34240F0B780A86D10B10CF08B
:10333C00DDFAAC652B6D002B00F0A68005F11800B2
:10334C0004F08AFED8F81040FCB123681A4A5B6876
:10335C00934240F0B380194BA06D236018B10CF070
:10336C00C5FA0023A365236D04F11805002B00F0AA
:10337C009D80284604F070FE019B2846A36004F053
:10338C006BFE5C21204606F0F7FC0023C8F81030D9
:10339C001821144807F0D6FF0B4805F063FF04A969
:1033AC00094805F039FF084805F05CFFC82006F015
:1033BC004DFB19E08500000099070000480A002029
:1033CC007100000058120020D01400208806002044
:1033DC00542F002074120020582F00205C2A00204B
:1033EC009C1A00207812002004A806F0D5F841B0F1
:1033FC00BDEC068BBDE8F08FF1EE10FA7FF5D1AC89
:10340C00F0EE474AD9E42046984700287FF4B1AE45
:10341C0016212C4807F096FF2B4841B0BDEC068BCB
:10342C00BDE8F04F05F01EBF1E212848F2E7C8F892
:10343C00104094E6636D002B7FF467AF69E73F9C07
:10344C00002C7FF4AFAD224B30A8DFF888800193BD
:10345C002C9304F001FED8F81030002B7FF433AE1F
:10346C00D6E7F0EE404AA8E4F0EE674AA5E4636DB7
:10347C00002B7FF47EAECBE72046984749E75A6D88
:10348C00002A7FF438AE3AE66B6D002B7FF456AF12
:10349C0058E71846884732E62846984752E75A6D4F
:1034AC00002A7FF443AE03F1180248E6636D002B4B
:1034BC007FF45FAF60E7184690474BE6204698478D
:1034CC0063E700BF40120020D0140020FC11002044
:1034DC003C0900209C1A0020134A1449144810B5CA
:1034EC0008F0CAF91349144800F016FB134805F00C
:1034FC00BBFC134805F0B8FC124805F0B5FC124AA9
:10350C001249D2ED007A91ED007A114B77EEC77A21
:10351C00104A1B68104C11481149236003600B6062
:10352C00C2ED007A10BD00BF0C1500207108000020
:10353C009C1A002084260020402E0020202F0020E2
:10354C00282F0020302F0020081B0020041B0020F7
:10355C00C41A0020442F0020382F00203C2F0020BC
:10356C00402F002090F8A32090F8A200101A70476A
:10357C0090F8A23090F8A3209A4205D95A1C034423
:10358C0080F8A220987E70474FF0FF30704700BF44
:10359C0090F8A23090F8A3209A4202D91844807E69
:1035AC0070474FF0FF307047704700BF0346B0F8CC
:1035BC00300178B193F82F21882A03D901220020F9
:1035CC005A60704702F1010C01201A4483F82FC194
:1035DC0082F8A510704700BF38B5B0F830410CB96F
:1035EC00204638BD90F82F310546C3F18904A2421C
:1035FC000DD8144605F1A5002246184406F020FB10
:10360C0095F82F312046234485F82F3138BD0122FF
:10361C004260EFE738B5002513464FF47A72044642
:10362C00C0E901521548882221612946206004F125
:10363C001A0063612573257665760CF0A3FF892249
:10364C00294604F1A50084F8A25084F8A35084F80C
:10365C00A4500CF097FF204684F82E5184F82F517B
:10366C0084F8305184F8315184F8325184F8335154
:10367C0084F83451C4E94E5538BD00BFF80A002017
:10368C002DE9F04FD0F814A01524017E8146437E1D
:10369C0083B00AEB0111384A0AEB0313374F097A4E
:1036AC0093F8283002EB01150901E86852F8018003
:1036BC0002EB0311D5F804B01B01CE68D558CBF83A
:1036CC000040C8F88400D8F804304A6803432C49F9
:1036DC000192C8F804301460C5F884606B683343F9
:1036EC006B60284B4C683A68A3FB0232920C02EBDD
:1036FC00820252004B681B1B9A42FBD84FF0090CFC
:10370C001F4ADFF880E0D8F80830034202D0AB68DB
:10371C0033422FD1C5F8886054683968AEFB01314B
:10372C00890C01EB810153681B1B9942FBD8C5F82E
:10373C00846054683968AEFB0131890C01EB81015E
:10374C0053681B1B9942FBD8BCF1010CDBD16046C2
:10375C0099F81830019A0AEB0313DB68CBF80030A8
:10376C0099F819300AEB031ADAF82C30136003B00D
:10377C00BDE8F08F0120EBE7840E0020B41400208C
:10378C00001000E083DE1B430E4A10B5116804697B
:10379C0005E0DB0107D413685B1A102B08D86369AA
:1037AC0013F0007FF5D14FF4FE430120636110BD8F
:1037BC00FFF766FF0028FAD04FF4FE430120636147
:1037CC00F5E700BF4C2F00202DE9F04790F82FA112
:1037DC00BAF1000F58D081468846FFF7D5FF002874
:1037EC0052D0374E0024376816E06B691A0544D462
:1037FC00580558D499044CD43268D21B322A48D874
:10380C00544507D9EA6D520704D19B0555D4B8F13C
:10381C00000F52D007F014FE5445D9F81050E4D8DC
:10382C00EA6D510702F00703DFD413E099F8A520E5
:10383C000133022442F48062042B2A6627D08A4585
:10384C0003F1010309EB01020ED992F8A520042B18
:10385C002A66CAD00121002CE8D02146013301345C
:10386C008A4509EB0102F0D8B8F1000FBDD04FF436
:10387C0000732B666B691A05BAD52B69042043F4C7
:10388C0040732B61BDE8F0870420BDE8F08701246C
:10389C00ABE72B694FF40072042043F440732B61A7
:1038AC002A66BDE8F0872B694FF40072022043F4BE
:1038BC0040732B612A66BDE8F0870020E5E700BF66
:1038CC004C2F00202DE9F04782460C4615461F462A
:1038DC00FFF75AFF002800F08F8063000021012DB4
:1038EC00DFF81C81DBB240F2014638BF01250C46E3
:1038FC001E43D8F80090AAF8A2101EE09AF8A33044
:10390C00872B3DD951690B0557D411F4105F67D142
:10391C00D8F80030A3EB0903322B61D89AF8A33006
:10392C00AB4208D3022C06D9D36D580703D18B05B3
:10393C0047D4002F45D007F083FD022CDAF8102075
:10394C00DCD8D36D590703F00700D7D421466C1E81
:10395C00084444F4807441B916660131431A032BB0
:10396C0001D80229F7D90C46C8E7012931D017B183
:10397C004FF4007313669AF8A3300324872BC1D835
:10398C00D16D11F4E02FC1F3024EBBD0591C9E44F3
:10399C001933C9B25FFA8EFE5AFA83F3D2F870C0AB
:1039AC00481C71458AF8A310C1B203F801CFA9D005
:1039BC008929F3D151690B05A7D5136943F44073D9
:1039CC001361D36D13F4E02F05D19AF8A300BDE871
:1039DC00F0871466C1E7136943F400731361F4E7CD
:1039EC0013694FF4007143F4407313611166D36D86
:1039FC0013F4E02FE9D0EEE70420BDE8F08700BF18
:103A0C004C2F0020036970B5D3F81451044615F4FB
:103A1C00706201D0C3F81421AE070BD5D3F8701126
:103A2C0008043ED50022012084F8A220224484F808
:103A3C00A3009176EA0710D594F83061F6B194F8AA
:103A4C002E6194F82F21B24227D9721C264484F897
:103A5C002E2196F8A520C3F86021AB050DD594F85E
:103A6C00A30018B1D4F83C3103B198470023A4F853
:103A7C00A230A4F82E3184F8303170BDD4F838213E
:103A8C000AB190472369002284F82E21012284F880
:103A9C00302194F82F21B242D7D80022C3F86021EC
:103AAC00DBE794F8A320872AC4D8501CC0B2BDE72A
:103ABC000148FFF7A7BF00BF842600200148FFF78D
:103ACC00A1BF00BFC42700200148FFF79BBF00BF68
:103ADC000429002010B5094C094922460948FFF772
:103AEC0099FD04F1500208490848FFF793FD04F1D1
:103AFC00A00207490748FFF78DFD10BDE01F0060CD
:103B0C0000003F408426002000803F40C427002056
:103B1C0000C03F4004290020DFF810C0024A0160B9
:103B2C00C0F868C0C266704748E17A3F0AD7A33C28
:103B3C0070B5036801254FF0D00C044683F8305162
:103B4C00164683F8A5C083F82F51006803681B68DC
:103B5C0098472068314603681B68984729462068B7
:103B6C00BDE87040FFF730BE2DE9F04788460546AA
:103B7C0010469A462DED0A8B05F068FFB8F1000F40
:103B8C0040F029819FEDC8BA0027C84EF0EE4BBA21
:103B9C00DFF85093B0EE4BCA9FEDBFAB9FEDC09BCF
:103BAC00B8F1000F06D009FB07F3C14AB2EBF30FD3
:103BBC0080F0E4802A680124D023432182F830412C
:103BCC0082F82F4182F8A530286803681B68984753
:103BDC0000212868FFF7F8FD234606226821286893
:103BEC00FFF770FE286803685B69B34240F0C3803E
:103BFC0090F8A23090F8A3209A4240F2C4801A198F
:103C0C00034480F8A2209C7E28682402036824B216
:103C1C005B69B34240F0AC8090F8A23090F8A320DE
:103C2C009A4240F2B0805A1C034480F8A2209B7E3A
:103C3C0028681C43036822B25B6908EE902AB342E1
:103C4C0040F0938090F8A23090F8A3209A4240F272
:103C5C00A3805A1C034480F8A2209C7E286824026E
:103C6C00036824B25B69B3427CD190F8A23090F81F
:103C7C00A3209A4240F299805A1C034480F8A22057
:103C8C009B7E2868234302681BB208EE103A5369E6
:103C9C00B34265D190F8A23090F8A3209A4240F23A
:103CAC008D805A1C034480F8A220987E2B68000259
:103CBC001A6804B25269B24247D193F8A22093F821
:103CCC00A310914240F28480511C1A4483F8A21034
:103CDC00937E234307EE903AB8EEE77B87EE095BC1
:103CEC00013740F6B8339F42B8EEE87BB8EEC88B8C
:103CFC00B7EEEB4A87EE096B88EE097BB7EECCCAC0
:103D0C00B7EECBBA3BEE05BBB7EECBBB36EE0CCB6E
:103D1C00B7EECCCB37EE047BF7EEC7BB7FF440AFEE
:103D2C00DFED647A8CEE276ACBEEA76A8BEE277AEE
:103D3C0085ED056AC5ED066A85ED077AB8F1000FC9
:103D4C005FD1BDEC0A8BBDE8F08718469047204345
:103D5C0000B207EE900AB8EEE77B87EE095BBFE78F
:103D6C009847A3E7984703468BE79847044675E7BF
:103D7C00984703465CE79847044645E701214E48BF
:103D8C0007F0E0FA16E790F8A23090F8A320DFEDE8
:103D9C004B8A9A423FF65DAF90F8A2306FF0FF0469
:103DAC0090F8A3209A423FF667AF90F8A23090F8B3
:103DBC00A3209FED428A9A423FF673AF03466FF001
:103DCC00FF0493F8A22093F8A31091423FF67CAF26
:103DDC00B0EE4A5B84E73A4805F044FA28213948AA
:103DEC0007F0B0FA364805F03DFA1821364807F0CE
:103DFC00A9FA334805F036FA1321344807F0A2FA31
:103E0C00C0E62F4805F02EFA0521314807F09AFA42
:103E1C002B4805F027FA04212E4807F093FA95ED6C
:103E2C00050A02212648B7EEC00A05F039FA2448E3
:103E3C0005F018FA0421284807F084FA95ED060AD3
:103E4C0002211F48B7EEC00A05F02AFA1C4805F0FB
:103E5C0009FA0421214807F075FA95ED070A0221A9
:103E6C001748B7EEC00A05F01BFA154805F0FAF929
:103E7C0022211B4807F066FA114805F0F3F92821B6
:103E8C00104807F05FFA5046BDEC0A8BBDE8F047CE
:103E9C0005F0DCBDAFF3008071424A9E65448FBFD4
:103EAC00000000000060504000000000A113000062
:103EBC003789410000803B453C120020FFFFFFFF8B
:103ECC00D014002044070020700700208C0700202D
:103EDC00A0070020A8070020B0070020B80700208A
:103EEC00C0070020D578E92670B503680125D022DB
:103EFC0004463B212DED048B83F8A52083F830512B
:103F0C0083F82F51006803681B68984700212068CC
:103F1C00FFF75AFC2B460E2268212068FFF7D2FCD3
:103F2C002368CD4D1A685269AA4240F00C8293F86E
:103F3C00A22093F8A310914240F24382511C1A44E0
:103F4C0083F8A210907E236800021A6806B25269A8
:103F5C00AA4240F0308293F8A22093F8A310914229
:103F6C0040F22F829918013283F8A2208A7E2368AE
:103F7C0046EA02001A68A0805269AA4240F01882F0
:103F8C0093F8A22093F8A310914240F22082511C86
:103F9C001A4483F8A210907E236800021A6806B2B5
:103FAC005269AA4240F0FE8193F8A22093F8A31024
:103FBC00914240F20C829918013283F8A2208A7E39
:103FCC00236846EA02001A68E0805269AA4240F06F
:103FDC00E68193F8A22093F8A310914240F2F48169
:103FEC00511C1A4483F8A210907E236800021A68B0
:103FFC0006B25269AA4240F0CC8193F8A22093F801
:10400C00A310914240F2E0819918013283F8A2206A
:10401C008A7E236846EA02001A6820815269AA4205
:10402C0040F0B48193F8A22093F8A310914240F28F
:10403C00D481511C1A4483F8A210907E236800028C
:10404C001A6806B25269AA4240F09A8193F8A220EB
:10405C0093F8A310914240F2C0819918013283F871
:10406C00A2208A7E236846EA02001A68608152699F
:10407C00AA4240F0828193F8A22093F8A3109142B7
:10408C0040F2A881511C1A4483F8A210907E236838
:10409C0000021A6806B25269AA4240F0688193F88D
:1040AC00A22093F8A310914240F294819918013206
:1040BC0083F8A2208A7E236846EA02001A68A0814F
:1040CC005269AA4240F0508193F8A22093F8A310B1
:1040DC00914240F28881511C1A4483F8A210907EC0
:1040EC00236800021A6806B25269AA4240F036816F
:1040FC0093F8A22093F8A310914240F2748199187E
:10410C00013283F8A2208A7E236846EA02001A68EC
:10411C00E0815269AA4240F01E8193F8A22093F8E4
:10412C00A310914240F25C81511C1A4483F8A210F6
:10413C00907E236800021A6806B25269AA4240F0C7
:10414C00058193F8A22093F8A310914240F2488184
:10415C00511C1A4483F8A210937E1E43B4F90A3002
:10416C00DFED3E4A07EE103AB4F904302682B8EE81
:10417C00C77B08EE903AB4F90630F8EEE88A08EE00
:10418C00103AB4F908309FED2E6B9FED2F5B68EE63
:10419C00A48A09EE103A37EE067BB8EEC88AF5EE23
:1041AC00C08AC4ED098A87EE056BF1EE10FAB8EE01
:1041BC00C99A28EE248AD8BFF1EE680A29EE249A0F
:1041CC00C8BFF0EE680A84ED0A8AB0EE480A84EDA6
:1041DC000B9A79EE200AB7EEC66B84ED086A0AF0EA
:1041EC003BFEDFED1F5AB6EE007B20EE250AB5EE46
:1041FC00C08AB7EEC00AF1EE10FA20EE070BD8BF5A
:10420C00B1EE488A9FED126B80EE067B79EE080AC0
:10421C00B0EE680AF7EEC79BC4ED129A0AF01CFECA
:10422C00B4F90E30DFED0E7ABEEE004B07EE103A0D
:10423C00B4F90C3020EE270A14E000BFAFF3008075
:10424C0000000000003EC840000000000040754027
:10425C00182D4454FB210940A113000000008038A4
:10426C000000B443664A07EE903ADFED666A616E71
:10427C00B8EEC77AF8EEE77A1368B7EEC00A94ED99
:10428C00055A5B1A87EE266A94ED071A07EE103A68
:10429C00D4ED151A1368C7EEA65A07EE906A63663A
:1042AC0020EE040B94ED1A4AF8EEE77A9FED503BA2
:1042BC00C7EEA64AD4ED066AB8EE477B36EE666AC0
:1042CC0075EEC55A94ED115A69EE846A84ED0D6A47
:1042DC00C4ED0C5A9FED482BBDEC048B27EE027BF2
:1042EC0080EE032BD4ED163A94ED0F3AB7EEC77B64
:1042FC00D4ED107A74EEC14A94ED1B1AE6EE077AEF
:10430C0084ED187AA4EE875AC4ED0E4AE5EE871AAE
:10431C00E6EE073AA5EE873AC4ED107A84ED115A11
:10432C00E1EE216A84ED175A84ED0F3AC4ED156A5B
:10433C00B7EEC27B67EE047A84ED137AE1EE237A52
:10434C00C4ED167A70BD18469047FCE518469047A8
:10435C00304306B202E718469047EAE61846904703
:10436C003043236800B2D2E618469047B8E61846A8
:10437C0090473043236800B2A0E61846904786E683
:10438C00184690473043236800B26EE618469047B3
:10439C0054E6184690473043236800B23CE6184672
:1043AC00904722E6184690473043236800B20AE64D
:1043BC0018469047F0E5184690473043236800B202
:1043CC00D8E54FF0FF30D5E54FF0FF3024E64FF045
:1043DC00FF30F8E54FF0FF3070E64FF0FF3044E669
:1043EC004FF0FF36BAE64FF0FF3090E6AFF30080A7
:1043FC00182D4454FB210940FCA9F1D24D62503FC9
:10440C004C2F00200000834210B5044600221921D5
:10441C00FFF78EFB00221A212046FFF789FB0822AA
:10442C001B212046FFF784FB00221C212046FFF7AE
:10443C007FFB01226B212046FFF77AFB2046FFF71A
:10444C0053FD054A0023A06CE16C1268E3632364FE
:10445C006065A165626610BD4C2F002070B500F13F
:10446C00240384B08C46044601AD164693E807003D
:10447C0085E807004FEA4C122946206A01F068FBD8
:10448C00012806D132462946206A01F045FB04B0CA
:10449C0070BD002004B070BD10B5044600F0BAFD2C
:1044AC00002384F8313084F8333010BD38B514460D
:1044BC000D46002200F12401006A01F02DFB034699
:1044CC0020B1428901202A801B89238038BD00BF7E
:1044DC0038B514460D46002200F12401006A01F0A3
:1044EC001BFB034620B1C28901202A809B892380B3
:1044FC0038BD00BF38B50D4690F8311009B1002019
:10450C0038BD382204460CF03DF8012340222562C8
:10451C00184684F8333084F8312038BDF0B40D4699
:10452C000978202903D115F8014F202CFBD01560F8
:10453C0095602C782F2C11D084B16E1C3C2C1D4F07
:10454C0035462AD8212C12D804F1FF3CBCF11E0FA1
:10455C0016D80020F0BC704715F8014F202CFBD06A
:10456C002F2CF9D01D601146F0BC01F0C3B9A4F199
:10457C00220C5FFA8CFC27FA0CFC1CF0010FE8D122
:10458C002E2C01D0202C0DD116F8014B002CE5D08F
:10459C002F2CE3D03C2C3546D4D95C2CD9D003D964
:1045AC007C2CD6D09660EFE73E3C012CFAD800204C
:1045BC00F0BC7047012100052DE9F04F90F8333025
:1045CC0083B00546DC0774D558060F46904640F17B
:1045DC00B080D5E90023D5E9041018EB020443F1AF
:1045EC000003A14270EB0303C0F0A980B8F1000FE7
:1045FC005BD0464605F11809D5E90032D5F820A064
:10460C00DAF838441C40C4F3080B002C70D1134367
:10461C0070D195F831305A064CBFDAF83424EA6977
:10462C00AA619AF84504023ADAF82C14630A82401B
:10463C0001EB54211144BBF1000F45D1B6F5007FBD
:10464C0042D3DAF81C2291423ED0B6F5806F58D393
:10465C004FF0010B0BFA00FBABEB030B730A9B4502
:10466C0028BF9B4691424FEA4B240AD801EB0B031F
:10467C009A4206D20AF50470019103F01BFE0199CF
:10468C00B8B1DAF814025B460268D2F814A03A46C4
:10469C00D04770B123462744D5E900125B1842F18C
:1046AC000002361BC5E90032A8D1404603B0BDE874
:1046BC00F08F95F832304FF0FF3043F0020385F85D
:1046CC00323003B0BDE8F08FCBF5007400220AF550
:1046DC000470B44228BF344603F018FE0028E8D01A
:1046EC0000EB0B012246384605F0AAFA2346D2E726
:1046FC00AA6996E795F833305B060ED5AA690132A4
:10470C008EE7DAF814023A4603681B6998470028CA
:10471C00CFD04FF400731C46BDE74A465046A969FA
:10472C0001F058FA0028C4DB0CD0D5F820A0AA69F7
:10473C0077E795F8313019077FF558AF49E7A1EBCA
:10474C00020853E795F8313013F0500FB1D0A8EBB5
:10475C0006084046AAE700BFF0B583B00122044624
:10476C0085690DF10701D0E90067FFF725FF0128E6
:10477C00A5610CBF9DF807004FF0FF30C4E900673E
:10478C0003B0F0BD2DE9F04F1F4690F8313083B0E7
:10479C000446D0F81880002B51D01646D0E9001CE6
:1047AC00BC4508BF91425CD056EA07024DD01D07AC
:1047BC0004D5D0E90402B042BA4140D394F8332076
:1047CC00751ED4F820A0019247F1FF309AF84524C9
:1047DC000932D2B2C2F1200ED540A2F1200900FA62
:1047EC000EFB20FA09F045EA0B050543019840063B
:1047FC0033D4481E20FA02F24CF1FF3051EA0C0C73
:10480C0000FA0EFE20FA09F042EA0E0242EA000219
:10481C0001D0954229D25B064CBFDAF83434E369F7
:10482C00A36104F1180906E0A169013D206A01F0B9
:10483C00D1F9002803DD4A46002DF5D107E0002010
:10484C00C4F8188003B0BDE8F08F00238361012009
:10485C00C4E9006703B0BDE8F08FE3692B44A361A2
:10486C00F5E7012003B0BDE8F08FAD1AD9E700BF22
:10487C002DE9F04F174690F831208FB00546002AED
:10488C0040F0D7808B4691F8311011F0500F00F0AA
:10489C00D08003F003019A46032900F0CA8001314D
:1048AC0003F0080041EA00030293002F00F0CB80D4
:1048BC00396901F10E08B649A1FB0818DBE90010B3
:1048CC004FEAD808014308F102085FFA88F805D0CE
:1048DC0000200021CBF81820CBE900010024029B1A
:1048EC00264643F040030393202206A95846FFF7BF
:1048FC0063FE00B3202840F09C809DF918209DF8A1
:10490C001830002AC0F2A28034B9DBF80020A2F1E2
:10491C002009DBF818200192444501D20134E4B29D
:10492C00002B00F01381202206A958460026FFF721
:10493C0043FE0028DED11AF4007F7AD0029B9B073D
:10494C0077D5002F75D0444517D2DDF804A020226E
:10495C0006A95846FFF730FE631C002861D02028BA
:10496C0067D12CB9DBF80020DBF818A0A2F12009E4
:10497C00DCB2A045EBD8CDF804A0382200212846A3
:10498C009BF833400BF0FEFDDBF82030C4F38014B1
:10499C00019A2B620823002685F82C4085F83130CB
:1049AC003B68C5E909297B60BE81B8F1000F33D0A3
:1049BC0008F1FF39B346DFF8DCA15FFA89F901226F
:1049CC0059462846FFF74AFD044690B390F900205B
:1049DC00002A2EDB202200210BF0D4FD002E00F04B
:1049EC00BC80BBF1010F00F0D780C123A3461E345D
:1049FC0004F81E3CBB8938461BB9D7E901239A42FF
:104A0C0005D003F0C1FC2BF8020FA345F2D10136FF
:104A1C005FFA86FBD845D2D8284600F0FBFA06464A
:104A2C000DE05846DBF8186000F024FB002840F03D
:104A3C00918000231E4685F8313085F8333030469E
:104A4C000FB0BDE8F08F4FF0030847E756BB444565
:104A5C0038BF0024852B7FF447AF314638222846D7
:104A6C0001260BF08FFD9DF81C209DF8193085F860
:104A7C00303002F03703D20658BF43F0080385F8F4
:104A8C003130DBF80030DBF82020203B2A62DBF8E9
:104A9C001820C5E909239BF83330C3F3801385F83C
:104AAC002C3021E7C02B28D0C12B7FF43CAF3A46E9
:104ABC0006A9284600F092FEE8B1BB89DBB9D7E91C
:104ACC0001329A4217D11AF4006FB2D11AF4884FFE
:104ADC0070D195F8333098076CD41AF4806FA8D144
:104AEC001AF4804FABD02846D5E90423FFF74AFED1
:104AFC000028A4D19DE70646F6E6029B85F83330E4
:104B0C009DF819309B0702D5039B85F833300B9B1E
:104B1C00EB61DDE90823C5E90423DDE90C23C5E9D4
:104B2C000223002FCFD04FF000033A69BB813B68C2
:104B3C007B609DF81B309A427FF4F5AEBE8ABDF8BF
:104B4C001C30F61AB6FA86F67609CDE6002F7FF4FD
:104B5C00F2AE6EE7CBF818600BE78523237085F86F
:104B6C00309084F80190DAF80030002B46D00DF12B
:104B7C0013020DF1160105A89847BDF81430638196
:104B8C00BDF8163023819DF8133023753FE700BF25
:104B9C0089888888C42A0020C02384F801B0237037
:104BAC00029B63F07F0385F833303B69E370BB8A6B
:104BBC00A3802CE795F83130D9063FF53AAF13F0C6
:104BCC0001017FF436AF1AF4806F89D095F8332049
:104BDC0092077FF52EAF002B3FF42BAFD5E90032B7
:104BEC00134304D000220023A961C5E90023284601
:104BFC0000F042FC00283FF41CAF20E745F2216393
:104C0C006381E381638202E72DE9F043002597B0CD
:104C1C00994690F8313001921495ADF81450002B50
:104C2C003ED191F831300F4613F0500F38D0137835
:104C3C00044616462F2B37D04FF0000801AB02AAC2
:104C4C0031462046FFF76AFC50B3019E3378002BA7
:104C5C003ED0002302AA39462046FFF709FEF8B1E0
:104C6C00A44608AD04F13007DCF800000CF1100C80
:104C7C005CF80C1CAE465CF8082C10355CF8043C57
:104C8C00BC45AEE80F00EFD1DCF8000008AF28609F
:104C9C00204600F0BFF984F8318084F83380CDE7EA
:104CAC00002017B0BDE8F08316F8011F2F29FBD0A8
:104CBC000196B1B9382220463D6A0BF063FC012302
:104CCC0040222562184684F8333084F83120E8E716
:104CDC004B4602AA39462046FFF7CAFD17B0BDE87D
:104CEC00F0833822002108A83D6A0BF04BFC01230D
:104CFC0008AF10958DF8533040238DF851309BE759
:104D0C0019B101F58961FFF77FBF0846704700BFF5
:104D1C0090F8313063B991F8313013F0500F07D05F
:104D2C000B6813F01F0C03D113466246FFF7A0BDAE
:104D3C00002070478169F8B50446006A01B1013161
:104D4C00012200F00DFE0128054632D9012301464F
:104D5C00206A1A4600F064FE064650B3A3695BB3A2
:104D6C0094F83320510612D5591CA94218D022F0C0
:104D7C004002E16984F8332005E0206A00F04CFF22
:104D8C003946B0B1A3694F1C99423A46F5D34FF05E
:104D9C00FF322946206A00F03FFF50B1A16911B9DA
:104DAC003046A561F8BD2A46206A00F035FF002880
:104DBC00F6D100263046F8BD94F8333043F040036A
:104DCC0084F83330ECE700BF90F833309A0736D5CF
:104DDC00C16970B50546A1B90024214607E00378E6
:104DEC0003F07F03037095F830308B4229D30134E4
:104DFC0001222846FFF732FBE1B20028EFD1002058
:104E0C0070BD5B06006A34D590F84534D5E90224B0
:104E1C000933013ADBB244F1FF34C3F1200CDA4020
:104E2C00203B04FA0CFC24FA03F342EA0C021A436A
:104E3C000023013200F0F4FD0028CDD1DFE7002083
:104E4C00704700232C6A85F83130204685F83330C2
:104E5C0003F030FA0028D2D004F5047003F02AFADB
:104E6C000028CCD0D4F840040368BDE870401B6A1D
:104E7C00184700F0F1FE0028AED1C0E790F83130B1
:104E8C00DB0601D40020704710B5002288B0002347
:104E9C000446FFF777FC08E020281BD19DF9003071
:104EAC009DF80020002B15DB32B1202269462046EC
:104EBC00FFF782FB0028EFD194F83330082220460C
:104ECC0043F0020384F8312084F83330FFF77CFF81
:104EDC0008B010BD002008B010BD00BF2DE9F04196
:104EEC004FF0000882B04A4F064644464146002225
:104EFC003046FFF7B3FA054630B10178C02969D0C6
:104F0C00C1292BD0852909D096F83230002043F0E6
:104F1C00010386F8323002B0BDE8F08196F83130EA
:104F2C0003F0370383803B6883B10DF103020DF16D
:104F3C00060101A89847BDF80630AB812B82BDF85D
:104F4C000430EB816B829DF803306B75326A92F8FA
:104F5C00103243F0010382F810322978A1F1850058
:104F6C000022B0FA80F0400901E00422A95CE303BE
:104F7C00012A02F1010243EA540311FA83F39CB2B1
:104F8C0001D10028F1D11F2AF0D908F1010896F8B7
:104F9C0030305FFA88F18B42A9D2012206F124014C
:104FAC00306A00F0B9FD0028AED0356A448028463E
:104FBC0003F080F90028A7D005F5047003F07AF906
:104FCC000028A1D0D5F8400403681B6A9847002834
:104FDC00A1D199E796F8333013F0400F437814BF02
:104FEC0043F0020303F0FD034370D6E90401D6E954
:104FFC000732C5E90201D6E902016B61C5E9060178
:10500C0092F8103243F0010382F810322978A5E7A8
:10501C00C42A002038B590F8313043B390F93320CE
:10502C00044690F83330002A0CDB056A284603F05E
:10503C0041F978B994F83230002043F0010384F838
:10504C00323038BD03F07F0380F83330BDE8384090
:10505C00FFF744BF05F5047003F02CF90028E9D0E4
:10506C00D5F8400403681B6A98470028E2D0012059
:10507C0038BD00BF70B590F8313005465A064CD497
:10508C0080682B6AD3F83C341844B0F1806F01D39C
:10509C00002070BD2846FFF74DFE0028F8D0286A86
:1050AC000024AE6990F84534023E9E40D0F82C3472
:1050BC001E443119052200F50470013403F026F961
:1050CC004FF4007200210028E2D00BF05BFA286A42
:1050DC00012390F8452493409C42EAD395F8313053
:1050EC005B0615D495F8332062F07F02D5E90231C6
:1050FC0085F83320D0F83C249B1841F10000AB60BC
:10510C00D5E90431E8609B1841F10001C5E904318F
:10511C002846BDE87040FFF77DBF006A00F0A2FE94
:10512C00AFE700BF70B5044690F831009CB0002387
:10513C0010F0180F0C931A9303D0206A0B6A984244
:10514C0002D000201CB070BD40F601236846FFF76A
:10515C005BFD0028F5D0A44604F130060EADDCF85A
:10516C0000000CF1100C5CF80C1CAE465CF8082C22
:10517C0010355CF8043CB445AEE80F00EFD1DCF818
:10518C00000009AA04F1240328609DF8305007CAD6
:10519C0083E8070094F83330204684F8305063F0ED
:1051AC007F0384F83330FFF735FF0028C9D0002186
:1051BC00022208230EA815918DF86B208DF869300A
:1051CC00FFF702FEBEE700BF38B591F8313013F09F
:1051DC00500F02D10025284638BD40F60223044664
:1051EC00FFF746FB0028F5D01023204684F8313019
:1051FC00FFF740FF05460028ECD0A16900220023F0
:10520C002046E161FFF7BEFAC12294F8313084F8F0
:10521C003320002BDFD04123204684F83330BDE807
:10522C003840FFF75BBE00BFF0B5002597B01F46B6
:10523C0090F831300192ADF814501495002B46D1F2
:10524C0091F831300E4613F0500F40D013780446CD
:10525C0011462F2B3ED001AB02AA2046FFF75EF978
:10526C00002834D0019B1B78002B41D0002302AACC
:10527C0031462046FFF7FCFA30B947B302AA314653
:10528C002046FFF7A1FF10B3A44608AD04F1300689
:10529C00DCF800000CF1100C5CF80C1CAE465CF851
:1052AC00082C10355CF8043CB445AEE80F00EFD187
:1052BC00DCF8000008AE28602046FFF7EDF80199F5
:1052CC0001AB02AA2046FFF729F90028CAD1002019
:1052DC0017B0F0BD013101910B782F2BFAD0316A48
:1052EC0008A8FFF707F90028F1D0019908AEB2E73A
:1052FC0002AA31462046FFF767FF17B0F0BD00BF8A
:10530C002DE9F04F0E4690F8311083B009079DF847
:10531C0030B09DF834909DF838809DF83C7040F189
:10532C008580A2F2BC7294B27F2C7FD85A1E0B2AB5
:10533C007CD80BF1FF321E2A78D8B8F13B0F98BFFE
:10534C00B9F1170F8CBF4FF0010A4FF0000A3B2F39
:10535C0088BF4AF0010ABAF1000F67D105460193E4
:10536C00FFF758FE002861D0019B51464BEA431BC6
:10537C007B0817F001074BEA4424D34643EA48184C
:10538C0018BF6427A4B248EAC92806F001091FFA1D
:10539C0088F800222846FFF761F8002846D090F8DC
:1053AC0000C0BCF1850F45D00CF14003DBB2012BE2
:1053BC003CD8ACF185010023B1FA81F1490902E036
:1053CC00042310F803C04FEACB32012B03F1010385
:1053DC0042EA5B021CFA82F21FFA82FB01D100291D
:1053EC00EED11F2BEDD90AF1010A95F830305FFA96
:1053FC008AF18B42CDD2012205F12401286A00F0FA
:10540C008BFB98B12C6AA0F802B0204602F052FF38
:10541C0060B104F5047002F04DFF38B1D4F84004CB
:10542C0003681B6A03B0BDE8F04F1847002003B0B7
:10543C00BDE8F08F95F831302A6A03F0370383808A
:10544C0092F8103243F0010382F81032B9F1000FD8
:10545C0002D0A0F810804482B20703D50775A0F8DB
:10546C0008804481730703D54775A0F80C80C4816C
:10547C0090F800C09DE700BF90F833309A0762D5D2
:10548C0070B5C56982B00446A5B313F0400634D09C
:10549C00006AA26890F845C4013AE1680CF1090C65
:1054AC0041F1FF315FFA8CFCCCF1200E22FA0CF2A8
:1054BC00ACF1200C01FA0EFE21FA0CFCA16942EAB7
:1054CC000E0242EA0C02013219B3013D6D1A013190
:1054DC002A44019172BB63F07F03204694ED007B5C
:1054EC0084F8333084ED027B84ED047BFFF792FD6E
:1054FC0002B070BD012002B070BD816961B9019527
:10550C00C1612946206A00F0A7FBC8B194F833307A
:10551C00E1E70195E161DDE701AA006A019600F07F
:10552C0059FB00280CDB10D1019D002DE9D194F81A
:10553C003330D0E70023019900F072FA0028E5D14E
:10554C00002002B070BD002070474FF0FF32A169FF
:10555C00206A00F061FB0028E6D1F1E72DE9F04369
:10556C0090F8333083B004469D0740F1A1809146FA
:10557C001A070E4600F19580B9F1000F00F0288152
:10558C0023684D46206AA169D0F8382402EA030842
:10559C00C8F30807B8F1000F40F09480002900F020
:1055AC00D48094F833305B0640F1EC8090F845C41D
:1055BC00D4E902320CF1090C013B5FFA8CFC42F18C
:1055CC00FF32CCF1200E23FA0CF3ACF1200C02FAD2
:1055DC000EFE22FA0CFCE26943EA0E0343EA0C03CA
:1055EC001344994280F0D5800131A16190F8452493
:1055FC000239D0F82C3491401944B5F5007FC0F035
:10560C008A80B5F5806FC0F0A680012393406A0AAA
:10561C00A3EB0803934228BF1346D0F81C228A42FE
:10562C004FEA432809D35F18BA4206D2002280F809
:10563C0010224FF0FF32C0F81C22D0F81402324670
:10564C000768BF6AB84798B343464644A5EB0805BC
:10565C00D4E90072D4E90401DB1942F1000298424A
:10566C009141C4E9003207D294F8331061F07F0104
:10567C00C4E9043284F83310002D83D1D4E902013B
:10568C0098429141C0F09680534B1B68002B00F060
:10569C009D8094F83330484663F07F0384F83330B0
:1056AC000DE0D0E90423FFF76DF800287FF464AF18
:1056BC0094F83230002043F0010384F8323003B008
:1056CC00BDE8F08390F8452402394FEA5828D0F809
:1056DC002C34914041441944002F8ED0C7F50078EA
:1056EC00012200F50470A84528BFA84602F00EFE62
:1056FC000028DDD0384447444246314604F0A0FA35
:10570C00B7F5007F206A9FD100F5047002F0D2FD3E
:10571C00002899D1CCE762686369009201932269F1
:10572C0023689342DDE900239A4112D2012200F54D
:10573C00047002F0EBFD0028BAD02A4631463844FA
:10574C00A84604F07DFA2B467FE7E16949B3A161D5
:10575C004CE70522EBE7D0F81C328B4206D1002334
:10576C0080F810324FF0FF33C0F81C32D0F814021E
:10577C00324603685B6A9847002899D04FF400734F
:10578C00984662E704F1180200F024FA00288FDB37
:10579C0004D12046FFF7CEFA002889D0A169206AEF
:1057AC0024E72046FFF7C6FA002881D0A169206AB9
:1057BC00E1611BE794F833104846C4E9023261F00A
:1057CC007F0384F8333003B0BDE8F083484676E7B6
:1057DC00D4E9003252E700BFC42A00202DE9F04181
:1057EC000C46154601F11E08AB89284634F8027F99
:1057FC001BB9D5E901239A420ED002F0C5FD02F087
:10580C0087FE0646384602F083FE864209D144459F
:10581C00EAD10120BDE8F081B7FA87F04009BDE874
:10582C00F0810020BDE8F0812DE9F04F90F8313087
:10583C0083B08846002B4FD090F830300746012BB0
:10584C0053D9013A0B464FF0020A00248E18DFF8A8
:10585C00A0B00022514638460193FEF7FFFD002808
:10586C003AD00278C12A37D1054600F11E09019BB6
:10587C0035F8020F24B300F5105292B2B2F5806FD6
:10588C002AD20BEA8424C0F30900204300F58030AF
:10589C001946324602F09EFD0346E8B100244D4500
:1058AC00E6D10AF1010A97F830205FFA8AFA5245DC
:1058BC00CFD2A3EB08009846002388F800300FE005
:1058CC0000F5205292B2B2F5006F02D30028DFD15E
:1058DC00EFE7B2F5806F06D30023184688F8003046
:1058EC0003B0BDE8F08F0446D9E70020E4E700BF21
:1058FC0000FC0F0070B50C4600234FF6FF752268B4
:10590C0019461E46A3812361626017E002F03CFD3C
:10591C00A84222D002F0FCFD2369F203A1890133D5
:10592C0042EA5602060A236152FA80F083B2C0F3AF
:10593C004E0040EAC33016FA80F086B220460029A9
:10594C00E4D1D4E901239A42E0D12069A68201383E
:10595C00FE288CBF0020012070BD002070BD00BF50
:10596C002DE9F84F07468A469146002942D0A1F10D
:10597C000208D7F83034434542D908F00703012513
:10598C00C8F3C80B9D40EDB246464446D7F82C14DC
:10599C000022384601EB143102F0B8FCE8B10BF1EF
:1059AC00FF3B834400F2FF101BF8011F0AE04A453D
:1059BC002BD0A04510D0D7F83054A54214D913F0F1
:1059CC00FF050CD0013429424FEA4503A4EB060233
:1059DC00EDD0A0452646EED10120BDE8F88F584504
:1059EC004FF00105E0D101E00026344601254FF0CF
:1059FC00000BCBE7D0F82084D7F830344345BCD823
:105A0C004FF000080125C346BEE7BAF1000F04D1E0
:105A1C00B9F1010F08BFC7F82064B01CBDE8F88FBE
:105A2C002DE9F8438046881E15461E468318D8F883
:105A3C003024934237D8CEBBD8F82034834288BF69
:105A4C00C8F8200400F007030124D8F82C74C0F324
:105A5C00C8099C4007EB1031E4B2012240468F1874
:105A6C0002F054FCF8B109F1FF3E864400F2FF103D
:105A7C001EF801CF1CEA040F8CEA040C4FEA440414
:105A8C0014BF01220022B2420DD0013D8EF800C09D
:105A9C0018D014F0FF04EDD17045A1464FF001046D
:105AAC00E6D13946D9E70020BDE8F883D8F82014B0
:105ABC008B42C7D98142C5D3934228BF0023C8F873
:105ACC002034BFE70120BDE8F88300BFF8B5D0F85B
:105ADC00303401338B4201D20020F8BD07460C460E
:105AEC0000F50476002505E0D7F830340135013394
:105AFC00A342F1D3D7F824140022304601EBD41181
:105B0C0002F004FCA4000028E6D0C4F308040459F5
:105B1C00631CE9D1681CF8BD38B50C460B6890F8CD
:105B2C0045C400F50470D0F82812023B656803FAEE
:105B3C000CF3294003EB5123D0F81C12194402F04A
:105B4C00E5FB18B16368C3F30803184438BD00BF04
:105B5C002DE9F8430C46D0F8383449680B40114411
:105B6C006160134490F8451401F10902D2B2D3409C
:105B7C002BB380465D1E00F5047905E02368013DDA
:105B8C0003F1010323601AD3267A002EF6D1D8F83C
:105B9C00303432462768484601339F4212D8D8F831
:105BAC00241401EBD71102F0B1FBBF0050B1C7F3C5
:105BBC000807C3595A1C09D0013D2360E4D20120C7
:105BCC00BDE8F8834FF0FF30BDE8F8833046BDE800
:105BDC00F88300BF38B5D0F8303401338B4202D291
:105BEC004FF0FF3038BD0C46D0F82414154600F5A4
:105BFC000470002201EBD41102F088FB0028EFD0D6
:105C0C00A400C4F3080403595A1C02D001202B60D1
:105C1C0038BD002038BD00BF01291BD938B5D0F8DC
:105C2C0030340C4601338B4201D2002038BDD0F801
:105C3C002414154600F50470012201EBD41102F076
:105C4C0065FB03460028F0D0A4000120C4F308042F
:105C5C001D5138BD00207047D0F8303401339942C3
:105C6C0001D9002070472DE9F04F054683B00C4652
:105C7C0000F504790F464FF00008D5F824140022E3
:105C8C0048464FEAD41B01EBD41102F03FFB90B114
:105C9C00A300C3F30803C2580193531C16BF164646
:105CAC004FF0000A4FF0010A012C04D9D5F830242A
:105CBC000132944203D9002003B0BDE8F08FD5F82F
:105CCC00241401224846594402F020FB0028F2D04B
:105CDC00019B40F80380BAF1000F12D00134B4429A
:105CEC0008D00023E21B39462846FFF799FE00280E
:105CFC00E1D03746D5F830340133B342DBD33446E8
:105D0C00BBE7621C534639462846D21B03B0BDE89C
:105D1C00F04FFFF785BE00BF2DE9F843002506467E
:105D2C00D0F82C1400F504782C46002240464F1C69
:105D3C0002F0ECFAA8B100F1FF3E04F58059D6F858
:105D4C00300405E079B90834844209D24C4516D0A8
:105D5C001EF8011FFF29F5D1083408358442F5D30C
:105D6C00401BBDE8F8830822012319424FEA430C7B
:105D7C0018BF0135013A5FFA8CF3F6D1E3E73946E7
:105D8C00D3E700BFF8B500234FF0FF3600F50477DA
:105D9C001546C0F84014044641601A46C0F8141267
:105DAC00194680F844340370C66080F81032C0F88D
:105DBC001C62384602F0AAFA042D0DD8064658B1DA
:105DCC00BDB16B1E00EB031393F8BE2112F07F02E2
:105DDC0002D193F8C2310BB90020F8BD00EB0516C7
:105DEC003846D6F8B651294602F090FA06460028F5
:105DFC00F2D005221A49F01C0AF016FC0028EBD14F
:105E0C0096F86C30092BE7D1336D01462B44C4F85E
:105E1C002434736DC4F82834B36D2B440125C4F8B5
:105E2C002C34F36DC4F83034336EC4F8343496F833
:105E3C006D20C4F82004204602F1090384F845249F
:105E4C0005FA03F35A1EC4F83C34C4F838242A4625
:105E5C00FFF786FD4023284684F84434F8BD00BF84
:105E6C003007002010B50446D0F83414FFF72EFE8E
:105E7C0094F845340933DBB2984010BD70B590F9F5
:105E8C00023082B00446002B0DDBA56805F128001A
:105E9C0002F010FA00283BD16378002043F0010394
:105EAC00637002B070BD80680122A169283002F0D5
:105EBC002DFA0028F0D0A58805F00F056B0100EB3A
:105ECC004515C35CE52BE7D023781B0701D5E369A7
:105EDC00EB61236A15491A0C6B830E68AA8266B1B2
:105EEC000DF103020DF1060101A8B047BDF8043015
:105EFC00BDF806202B836B82EA82A378A56803F099
:105F0C007F0305F12800A37002F0D4F90028C3D058
:105F1C0005F50E7002F0CEF90028BDD02868036894
:105F2C001B6A98470028B7D0BBE700BFC42A0020E3
:105F3C00024638B552F8105F04468068294601F0D5
:105F4C0037FE50B155B123690135AB42A37818BF68
:105F5C0003F0BF0363F07F03A37038BDA37843F055
:105F6C004003F7E7F8B5047814F0200404D11A4B79
:105F7C00054642699A4202D300273846F8BDFFF71E
:105F8C00D7FF07460028F7D0A8682E698279023E11
:105F9C00416996400E440179A9B1214606E00AF008
:105FAC00F1FAA868E1B202798A420BD93144052290
:105FBC002830013402F0AAF94FF4007200210028B5
:105FCC00EDD1D9E782794FF4007369693846934073
:105FDC0011FA83F36B61F8BD00FE1F0010B5044687
:105FEC0080680A462830A16902F090F920B1A38894
:105FFC0003F00F0300EB431010BD00BF10B5037886
:10600C0004462BB1FFF73AFF00232370A37010BD99
:10601C00002301202370A37010BD00BF38B5037896
:10602C0005460C4613B1FFF729FFF0B1A868002212
:10603C00A969283002F06AF9B8B1AA8802F00F02F7
:10604C0000EB421352015D6880589968DA68206051
:10605C006560A160E26018695D699969DA6920611F
:10606C0001206561A161E26138BD002038BD00BF2F
:10607C0030B589B00D4614466946FFF7CFFF28B1FD
:10608C00BDF81020BDF80E302A80238009B030BD39
:10609C0030B589B00D4614466946FFF7BFFF28B1ED
:1060AC00BDF81820BDF816302A80238009B030BD09
:1060BC000B7813F0700F01D100207047F0B540F64B
:1060CC00022389B00D46044601F0F0F838B10122E4
:1060DC0010232046A2702370FFF744FF10B9002054
:1060EC0009B0F0BD2269237822626BB1636933B1C8
:1060FC00A378002223F02003C4E90422A3702046D5
:10610C00FFF7BCFE0028EAD0A0680122A169283064
:10611C0002F0FCF80028E2D0B4F804C010220CF015
:10612C000F0C4FEA4C1300EB4C1C8CF80B20C05896
:10613C00A768236A97F806E09E1EDCF80410DCF8CA
:10614C000820DCF80C3006FA0EF6EE46AEE80F002E
:10615C00DCF81000DCF81410DCF81820DCF81C302B
:10616C00AEE80F007B6907F128000122F1184FF00F
:10617C002033CDF80130CDF80530ADF8093002F000
:10618C00C5F884460028AAD02E27EE468DF800705C
:10619C007646BEE80F00CCF80000CCF80410CCF822
:1061AC000820CCF80C308DF80170BEE80F00CCF84C
:1061BC001000CCF81410CCF81820CCF81C302B6A3A
:1061CC001A0CADF81A30ADF814200FCECCF8200014
:1061DC00CCF82410CCF82820CCF82C300FCECCF8EE
:1061EC003000CCF83410CCF83820CCF83C30A46813
:1061FC0004F1280002F05EF800283FF470AF04F5BB
:10620C000E7002F057F800283FF469AF206803685D
:10621C001B6A09B0BDE8F040184700BF2DE9F041FA
:10622C00002694B0984603780192ADF814600B9652
:10623C00002B41D10B780D4613F0700F3CD0137826
:10624C00044616462F2B3BD0002728E0019E3678BB
:10625C00002E50D001F02AF8034602AA2946204607
:10626C002BB9B8F1000F27D0FFF722FF20B3A646B9
:10627C000DF12C0CBEE80F00ACE80F00BEE80F00CF
:10628C00ACE80F00DEF8005020462378CCF8005024
:10629C000BB1FFF7F3FD019E0BAD2770A7703146D4
:1062AC0001AB02AA204601F04DF9064602AA294686
:1062BC0000232046002EC9D1002014B0BDE8F08187
:1062CC000136019633782F2BFAD0AD6824220021A9
:1062DC000BA80AF057F90D95EB79102B03D0202B56
:1062EC000FD00C2BE8D120238DF82C3001230BADD3
:1062FC008DF82E30A8E702AAFFF7DAFE14B0BDE83D
:10630C00F0814023F0E700BF2DE9F041002594B067
:10631C009846037801920295ADF83850002B37D18E
:10632C000B780E4613F0700F32D0137804461546D6
:10633C002F2B31D000271EE0019D2D78002D40D051
:10634C0000F0B4FFA6460DF1080C08B3664625789C
:10635C00BEE80F00ACE80F00BEE80F00ACE80F0081
:10636C00DEF800302046CCF800300DB1FFF786FD8A
:10637C00019D2770A770294601AB0BAA204601F09E
:10638C00E1F805460BAA314600232046002DD3D157
:10639C00002014B0BDE8F0810135019529782F2932
:1063AC00FAD0A9B9B568242220460AF0EBF8A5600A
:1063BC00EB79102B03D0202B22D00C2BE8D12022F0
:1063CC001FE043460BAA00F071FF14B0BDE8F0814A
:1063DC00B6682422002102A80AF0D4F80496F379B6
:1063EC00102B03D0202B03D00C2BD1D1202300E079
:1063FC0040238DF80830012302AE8DF80A3099E75E
:10640C004022012322701846A370C2E719B101F58E
:10641C008961FFF779BF0846704700BFCB6870B53C
:10642C000D46044693B906780EB1184670BD8D68BA
:10643C00242231460AF0A6F8A560EB79102B18D06F
:10644C00202B10D00C2B14D0304670BD24220021F0
:10645C000AF098F801201023A0702370D5E90223CC
:10646C00A260236270BD4022012322701846A370E3
:10647C0070BD2022F8E700BF70B505780DB1002083
:10648C0070BD0E460446242229460AF07BF8A6600D
:10649C00F379102B0BD0202B03D00C2B07D02846D4
:1064AC0070BD4022012322701846A37070BD2022BB
:1064BC00F8E700BF2DE9F04F2DED028B837883B008
:1064CC000546DF0740F18C808846017892460E071E
:1064DC0000F191808C0608D583685A894369C3EB17
:1064EC0042139BB29A4528BF9A46BAF1000F00F0AE
:1064FC00AF806A6905F11003880656464FF0000913
:10650C0008EE103AAF68C2F3080B3DD5396A01EBBF
:10651C005221BBF1000F51D1B6F5007F4ED37A6BEF
:10652C0091424BD0B6F5806FC0F082802878730A08
:10653C00800605D43879A0EB0900834228BF0346B6
:10654C0091424FEA43240CD8C818824209D207F171
:10655C002800CDE9001301F0ADFEDDE900130028A1
:10656C003ED0F86A026857694246B847002837D0CF
:10657C006A69361BA04422446A6169D02978C2F347
:10658C00080BAF688806C1D497F8059009EA522920
:10659C00BBF1000F36D1B9F1000F33D1002A33D142
:1065AC004A064CBF3A6A2A6A2A61023AB879796972
:1065BC00824049441144BBF1000FADD0CBF50074BF
:1065CC00002207F12800B44228BF344601F09EFE99
:1065DC0030B100EB0B012246404603F031FBC7E71C
:1065EC006B784FF0FF3043F002036B7003B0BDECDF
:1065FC00028BBDE8F08FC36942699B1A9A4528BF8C
:10660C009A4672E72A69D0E70B0705D5AA78540693
:10661C0002D52A690132C7E718EE102A38462969D3
:10662C0001F014FB0028DBDB0CD0AF682A69BCE757
:10663C00F86A424603681B6998470028D0D04FF48B
:10664C00007495E72B7813F0700FC9D0AAEB060AEB
:10665C00504603B0BDEC028BBDE8F08F70B582B034
:10666C00012204460DF10701D0E90456FFF722FF81
:10667C0001280CBF9DF807004FF0FF30C4E9045609
:10668C0002B070BD436913F4F07F30B5044683B09B
:10669C00C3F3431509D0012907D120334361A06806
:1066AC00383000EB451003B030BD01220DF107016D
:1066BC002046FFF7FFFE40B2012803D163691F3368
:1066CC006361ECE70020EEE72DE9F04103789AB026
:1066DC00002613F0180F0896119606D017468368FB
:1066EC008A6804460D469A4203D000201AB0BDE8D1
:1066FC00F081FFF7C3FBA6460DF1440CBEE80F007A
:10670C00ACE80F00BEE80F00ACE80F00DEF800307C
:10671C003246A169CCF80030A36803F1280001F0DF
:10672C00F5FD0028E1D0A288EC4694F8008002F038
:10673C000F0200EB421E5201DEF804108058DEF806
:10674C000C30DEF80820ACE80F00DEF81410DEF890
:10675C001820DEF81C30DEF81000ACE80F0018F042
:10676C0008033A46294640F09B8008A8FFF756FDDF
:10677C000028BAD0109EBDF8243000250E990122B5
:10678C00A3809DF82330A068E3700B9B2830A16197
:10679C00E3608DF820508DF8225001F0B7FD0028F1
:1067AC00A3D0A38803F00F0300EB4310DDF80D30EA
:1067BC00C0F80D30DDF81130C0F81130DDF81530AF
:1067CC00C0F81530DDF81930C0F81930BDF81D309F
:1067DC00A0F81D309DF81F30C3779DF80B30C372A5
:1067EC00002E3BD0A068B31E2A46817928308B40FE
:1067FC0050F8141C194401F089FD054600283FF49B
:10680C0074AF006A6F46696AAA6AEB6A0FC7286B95
:10681C00696BAA6BEB6B0FC73146A06801F038FAB5
:10682C0000283FF462AFA068236A82792830023BCB
:10683C0050F8141C93400122194401F067FD0646E0
:10684C0000283FF452AF6D460FCD30627162B262D8
:10685C00F3620FCD30637163B263F36300210222E4
:10686C00082311A819918DF846208DF8443000F0BA
:10687C00D3FE00283FF439AFA46804F1280001F0DE
:10688C0019FD00283FF431AF04F50E7001F012FD34
:10689C0000283FF42AAF206803681B6A984725E755
:1068AC0040F601236046FFF72FFD00287FF463AF0D
:1068BC001BE700BF0378DA0601D400207047436958
:1068CC0030B5044683B033B18378002223F0200323
:1068DC00C0E90422837000230FE06361A3686A019E
:1068EC0038339A5C03EB4513EAB1E52A04D02E2A1F
:1068FC0002D0DB7A1B0722D5636913F4F07FC3F354
:10690C00431503F12003E8D101220DF107012046C4
:10691C00FFF7D0FD40B2012803D163691F336361D7
:10692C00DCE763785BB9A3780822204643F00203C6
:10693C002270A37003B0BDE8304000F06DBE0020A3
:10694C0003B030BD2DE9F041037804460769002BF4
:10695C0039D00D464169A94242D0002D37D01807D5
:10696C002AD5E269AA422ED3D4F808C06E1EA278AA
:10697C009CF8060012F0400F00F10900C0B226FA94
:10698C0000F630D14A1EC24009B196422FD25B06A6
:10699C004CBFDCF82030236A236104F1100806E0B8
:1069AC002169013EA06801F051F900280BDD424637
:1069BC00002EF5D1A2780CE09A06D5D5A3685B8998
:1069CC00B5EB431FF6D900202761BDE8F081827832
:1069DC00056122F0200201206561A270BDE8F08102
:1069EC000120BDE8F081236A33442361F1E7B61A34
:1069FC00D3E700BF2DE9F0410E46154600212422B5
:106A0C00044698469DF8187009F0BCFDB068336ACE
:106A1C0000F13802A58005F00F0502EB4512C4E920
:106A2C000203D17A0B0711D401F017012170D37A2C
:106A3C0013F0180F02D141F00801217008F0030384
:106A4C00E770012B38D0022B06D0F3B10023184687
:106A5C002370A370BDE8F08103232178CD06F5D413
:106A6C00CE07F3D408F0080118F4806F43EA010351
:106A7C00A370416B958AA161518B41EA054112D0FB
:106A8C0019BB63F07F03A37010E018F4806FDDD1A5
:106A9C0008F0080343F00103A370416B938AA161D2
:106AAC00518B41EA03412162D369E36118F4804FB1
:106ABC0004D10120BDE8F0810223CEE7E169204634
:106ACC00FFF740FF0028F4D1C0E701F0E1F80028FF
:106ADC00BCD0A378D5E700BF0378002B45D12DE9B6
:106AEC00F0470B7884B00C4613F0700F30D04B6924
:106AFC0013F01F052CD106469046A94601220DF134
:106B0C000F012046C3F3431A5F09FFF7D3FC40B2D1
:106B1C004FEA4A1201281BD16369A1681F3301F1A6
:106B2C00380C63611CF802200CEB4A1C82B12E2A33
:106B3C0012D0A2F1E500B0FA80F0400960B99CF8DF
:106B4C000B1011F0080E12D00F2907D00546D5E70F
:106B5C00002004B0BDE8F0870025CFE75106CDD565
:106B6C0002F01F059CF80D90C8E70020704785B116
:106B7C000CF10A0101E01CF8012F4FEACE1361451C
:106B8C0043EA5E0352FA83F35FFA83FEF3D1CE45F8
:106B9C00DED14346BAB2214630460095FFF72AFFB4
:106BAC00D7E700BF03780BB1FFF768B90120704736
:106BBC002DE9F0470E46017882B009079DF8287040
:106BCC009DF82C909DF830A09DF8348018D5A2F239
:106BDC00BC7294B27F2C13D85A1E01930B2A0FD877
:106BEC007A1E1E2A0CD8BAF13B0F98BFB9F1170FB9
:106BFC0006D8B8F13B0F03D80546FFF73FF918B993
:106C0C00002002B0BDE8F087A8680122A9692830ED
:106C1C0001F07CFB0028F3D0019B4FEA5802A988B5
:106C2C0047EA4313F70701F00F0142EA4A1243EA1D
:106C3C00442300EB41109BB242EAC92248BF438275
